{
  "_format": "hh-sol-artifact-1",
  "contractName": "XWallet",
  "sourceName": "contracts/XWallet.sol",
  "abi": [
    {
      "inputs": [
        {
          "internalType": "bytes",
          "name": "_pubkey",
          "type": "bytes"
        }
      ],
      "stateMutability": "payable",
      "type": "constructor"
    },
    {
      "anonymous": false,
      "inputs": [
        {
          "indexed": true,
          "internalType": "address",
          "name": "spender",
          "type": "address"
        },
        {
          "indexed": true,
          "internalType": "uint256",
          "name": "tokenId",
          "type": "uint256"
        },
        {
          "indexed": false,
          "internalType": "uint256",
          "name": "amount",
          "type": "uint256"
        }
      ],
      "name": "Approval",
      "type": "event"
    },
    {
      "inputs": [
        {
          "internalType": "address",
          "name": "_spender",
          "type": "address"
        },
        {
          "internalType": "uint256",
          "name": "_token",
          "type": "uint256"
        }
      ],
      "name": "allowance",
      "outputs": [
        {
          "internalType": "uint256",
          "name": "",
          "type": "uint256"
        }
      ],
      "stateMutability": "view",
      "type": "function"
    },
    {
      "inputs": [
        {
          "internalType": "address",
          "name": "_spender",
          "type": "address"
        },
        {
          "components": [
            {
              "internalType": "uint256",
              "name": "id",
              "type": "uint256"
            },
            {
              "internalType": "uint256",
              "name": "amount",
              "type": "uint256"
            }
          ],
          "internalType": "struct Nil.Token[]",
          "name": "_tokens",
          "type": "tuple[]"
        }
      ],
      "name": "approve",
      "outputs": [],
      "stateMutability": "nonpayable",
      "type": "function"
    },
    {
      "inputs": [
        {
          "internalType": "address",
          "name": "dst",
          "type": "address"
        },
        {
          "internalType": "address",
          "name": "refundTo",
          "type": "address"
        },
        {
          "internalType": "address",
          "name": "bounceTo",
          "type": "address"
        },
        {
          "internalType": "uint256",
          "name": "feeCredit",
          "type": "uint256"
        },
        {
          "internalType": "bool",
          "name": "deploy",
          "type": "bool"
        },
        {
          "components": [
            {
              "internalType": "uint256",
              "name": "id",
              "type": "uint256"
            },
            {
              "internalType": "uint256",
              "name": "amount",
              "type": "uint256"
            }
          ],
          "internalType": "struct Nil.Token[]",
          "name": "tokens",
          "type": "tuple[]"
        },
        {
          "internalType": "uint256",
          "name": "value",
          "type": "uint256"
        },
        {
          "internalType": "bytes",
          "name": "callData",
          "type": "bytes"
        }
      ],
      "name": "asyncCall",
      "outputs": [],
      "stateMutability": "nonpayable",
      "type": "function"
    },
    {
      "inputs": [
        {
          "internalType": "string",
          "name": "err",
          "type": "string"
        }
      ],
      "name": "bounce",
      "outputs": [],
      "stateMutability": "payable",
      "type": "function"
    },
    {
      "inputs": [
        {
          "internalType": "address",
          "name": "account",
          "type": "address"
        }
      ],
      "name": "getCurrencyBalanceOf",
      "outputs": [
        {
          "internalType": "uint256",
          "name": "",
          "type": "uint256"
        }
      ],
      "stateMutability": "view",
      "type": "function"
    },
    {
      "inputs": [],
      "name": "getCurrencyId",
      "outputs": [
        {
          "internalType": "uint256",
          "name": "",
          "type": "uint256"
        }
      ],
      "stateMutability": "view",
      "type": "function"
    },
    {
      "inputs": [],
      "name": "getCurrencyName",
      "outputs": [
        {
          "internalType": "string",
          "name": "",
          "type": "string"
        }
      ],
      "stateMutability": "view",
      "type": "function"
    },
    {
      "inputs": [],
      "name": "getCurrencyTotalSupply",
      "outputs": [
        {
          "internalType": "uint256",
          "name": "",
          "type": "uint256"
        }
      ],
      "stateMutability": "view",
      "type": "function"
    },
    {
      "inputs": [],
      "name": "getOwnCurrencyBalance",
      "outputs": [
        {
          "internalType": "uint256",
          "name": "",
          "type": "uint256"
        }
      ],
      "stateMutability": "view",
      "type": "function"
    },
    {
      "inputs": [
        {
          "internalType": "uint256",
          "name": "amount",
          "type": "uint256"
        }
      ],
      "name": "mintCurrency",
      "outputs": [],
      "stateMutability": "nonpayable",
      "type": "function"
    },
    {
      "inputs": [
        {
          "internalType": "bytes",
          "name": "message",
          "type": "bytes"
        }
      ],
      "name": "send",
      "outputs": [],
      "stateMutability": "nonpayable",
      "type": "function"
    },
    {
      "inputs": [
        {
          "internalType": "address",
          "name": "to",
          "type": "address"
        },
        {
          "internalType": "uint256",
          "name": "currencyId",
          "type": "uint256"
        },
        {
          "internalType": "uint256",
          "name": "amount",
          "type": "uint256"
        }
      ],
      "name": "sendCurrency",
      "outputs": [],
      "stateMutability": "nonpayable",
      "type": "function"
    },
    {
      "inputs": [
        {
          "internalType": "string",
          "name": "name",
          "type": "string"
        }
      ],
      "name": "setCurrencyName",
      "outputs": [],
      "stateMutability": "nonpayable",
      "type": "function"
    },
    {
      "inputs": [
        {
          "internalType": "address",
          "name": "dst",
          "type": "address"
        },
        {
          "internalType": "uint256",
          "name": "feeCredit",
          "type": "uint256"
        },
        {
          "internalType": "uint256",
          "name": "value",
          "type": "uint256"
        },
        {
          "internalType": "bytes",
          "name": "call_data",
          "type": "bytes"
        }
      ],
      "name": "syncCall",
      "outputs": [],
      "stateMutability": "nonpayable",
      "type": "function"
    },
    {
      "inputs": [
        {
          "components": [
            {
              "internalType": "uint256",
              "name": "id",
              "type": "uint256"
            },
            {
              "internalType": "uint256",
              "name": "amount",
              "type": "uint256"
            }
          ],
          "internalType": "struct Nil.Token[]",
          "name": "_tokens",
          "type": "tuple[]"
        },
        {
          "internalType": "address",
          "name": "_recepient",
          "type": "address"
        }
      ],
      "name": "transfer",
      "outputs": [],
      "stateMutability": "nonpayable",
      "type": "function"
    },
    {
      "inputs": [
        {
          "internalType": "uint256",
          "name": "hash",
          "type": "uint256"
        },
        {
          "internalType": "bytes",
          "name": "signature",
          "type": "bytes"
        }
      ],
      "name": "verifyExternal",
      "outputs": [
        {
          "internalType": "bool",
          "name": "",
          "type": "bool"
        }
      ],
      "stateMutability": "view",
      "type": "function"
    },
    {
      "stateMutability": "payable",
      "type": "receive"
    }
  ],
  "bytecode": "0x608060405260405162002b1438038062002b148339818101604052810190620000299190620001d7565b8080600290816200003b919062000473565b5050506200055a565b6000604051905090565b600080fd5b600080fd5b600080fd5b600080fd5b6000601f19601f8301169050919050565b7f4e487b7100000000000000000000000000000000000000000000000000000000600052604160045260246000fd5b620000ad8262000062565b810181811067ffffffffffffffff82111715620000cf57620000ce62000073565b5b80604052505050565b6000620000e462000044565b9050620000f28282620000a2565b919050565b600067ffffffffffffffff82111562000115576200011462000073565b5b620001208262000062565b9050602081019050919050565b60005b838110156200014d57808201518184015260208101905062000130565b60008484015250505050565b6000620001706200016a84620000f7565b620000d8565b9050828152602081018484840111156200018f576200018e6200005d565b5b6200019c8482856200012d565b509392505050565b600082601f830112620001bc57620001bb62000058565b5b8151620001ce84826020860162000159565b91505092915050565b600060208284031215620001f057620001ef6200004e565b5b600082015167ffffffffffffffff81111562000211576200021062000053565b5b6200021f84828501620001a4565b91505092915050565b600081519050919050565b7f4e487b7100000000000000000000000000000000000000000000000000000000600052602260045260246000fd5b600060028204905060018216806200027b57607f821691505b60208210810362000291576200029062000233565b5b50919050565b60008190508160005260206000209050919050565b60006020601f8301049050919050565b600082821b905092915050565b600060088302620002fb7fffffffffffffffffffffffffffffffffffffffffffffffffffffffffffffffff82620002bc565b620003078683620002bc565b95508019841693508086168417925050509392505050565b6000819050919050565b6000819050919050565b6000620003546200034e62000348846200031f565b62000329565b6200031f565b9050919050565b6000819050919050565b620003708362000333565b620003886200037f826200035b565b848454620002c9565b825550505050565b600090565b6200039f62000390565b620003ac81848462000365565b505050565b5b81811015620003d457620003c860008262000395565b600181019050620003b2565b5050565b601f8211156200042357620003ed8162000297565b620003f884620002ac565b8101602085101562000408578190505b620004206200041785620002ac565b830182620003b1565b50505b505050565b600082821c905092915050565b6000620004486000198460080262000428565b1980831691505092915050565b600062000463838362000435565b9150826002028217905092915050565b6200047e8262000228565b67ffffffffffffffff8111156200049a576200049962000073565b5b620004a6825462000262565b620004b3828285620003d8565b600060209050601f831160018114620004eb5760008415620004d6578287015190505b620004e2858262000455565b86555062000552565b601f198416620004fb8662000297565b60005b828110156200052557848901518255600182019150602085019450602081019050620004fe565b8683101562000545578489015162000541601f89168262000435565b8355505b6001600288020188555050505b505050505050565b6125aa806200056a6000396000f3fe6080604052600436106100f75760003560e01c8063add29c6d1161008a578063ddc6a17111610059578063ddc6a1711461031f578063e2f5df8c1461035c578063eed2063114610378578063f5b8214a146103a1576100fe565b8063add29c6d14610275578063b534638e146102a0578063cf387fed146102c9578063d064d784146102f4576100fe565b80634f7d1d58116100c65780634f7d1d58146101a75780635e38b66c146101d0578063796d7f561461020d578063978563081461024a576100fe565b80631072b91f146101035780631b20c58b1461012c5780632bb1ae7c1461015557806334bd4fa41461017e576100fe565b366100fe57005b600080fd5b34801561010f57600080fd5b5061012a6004803603810190610125919061118f565b6103ca565b005b34801561013857600080fd5b50610153600480360381019061014e91906113c8565b61041e565b005b34801561016157600080fd5b5061017c6004803603810190610177919061147f565b61055e565b005b34801561018a57600080fd5b506101a560048036038101906101a091906114cc565b6105f8565b005b3480156101b357600080fd5b506101ce60048036038101906101c991906115dd565b6107af565b005b3480156101dc57600080fd5b506101f760048036038101906101f29190611660565b6108af565b604051610204919061169c565b60405180910390f35b34801561021957600080fd5b50610234600480360381019061022f91906116b7565b6108c9565b6040516102419190611732565b60405180910390f35b34801561025657600080fd5b5061025f6109ad565b60405161026c919061169c565b60405180910390f35b34801561028157600080fd5b5061028a6109c5565b604051610297919061169c565b60405180910390f35b3480156102ac57600080fd5b506102c760048036038101906102c2919061174d565b6109ce565b005b3480156102d557600080fd5b506102de610a26565b6040516102eb919061169c565b60405180910390f35b34801561030057600080fd5b50610309610a44565b604051610316919061181f565b60405180910390f35b34801561032b57600080fd5b5061034660048036038101906103419190611841565b610ad6565b604051610353919061169c565b60405180910390f35b610376600480360381019061037191906118d7565b610b31565b005b34801561038457600080fd5b5061039f600480360381019061039a91906119c5565b610b35565b005b3480156103ad57600080fd5b506103c860048036038101906103c39190611a3a565b610b90565b005b6103d2610c39565b15610412576040517f08c379a000000000000000000000000000000000000000000000000000000000815260040161040990611b9e565b60405180910390fd5b61041b81610d4b565b50565b610426610c39565b15610466576040517f08c379a000000000000000000000000000000000000000000000000000000000815260040161045d90611b9e565b60405180910390fd5b60008151905060005b8181101561055857600083828151811061048c5761048b611bbe565b5b602002602001015190508060200151600360008773ffffffffffffffffffffffffffffffffffffffff1673ffffffffffffffffffffffffffffffffffffffff1681526020019081526020016000206000836000015181526020019081526020016000208190555080600001518573ffffffffffffffffffffffffffffffffffffffff167f56d287bf2bec97161aebc6ad3c1390661e6b8dcb8da1882b73e75e9a65a99a188360200151604051610542919061169c565b60405180910390a350808060010191505061046f565b50505050565b610566610c39565b156105a6576040517f08c379a000000000000000000000000000000000000000000000000000000000815260040161059d90611b9e565b60405180910390fd5b6105f45a83838080601f016020809104026020016040519081016040528093929190818152602001838380828437600081840152601f19601f82011690508083019250505050505050610e28565b5050565b610600610c39565b61063f576040517f08c379a000000000000000000000000000000000000000000000000000000000815260040161063690611c5f565b60405180910390fd5b60008251905060005b8181101561078757600084828151811061066557610664611bbe565b5b602002602001015190508060200151600360003373ffffffffffffffffffffffffffffffffffffffff1673ffffffffffffffffffffffffffffffffffffffff16815260200190815260200160002060008360000151815260200190815260200160002054101561070a576040517f08c379a000000000000000000000000000000000000000000000000000000000815260040161070190611ccb565b60405180910390fd5b8060200151600360003373ffffffffffffffffffffffffffffffffffffffff1673ffffffffffffffffffffffffffffffffffffffff16815260200190815260200160002060008360000151815260200190815260200160002060008282546107729190611d1a565b92505081905550508080600101915050610648565b506107aa8230305a60036000808a60405180602001604052806000815250610e4a565b505050565b6107b7610c39565b156107f7576040517f08c379a00000000000000000000000000000000000000000000000000000000081526004016107ee90611b9e565b60405180910390fd5b60008473ffffffffffffffffffffffffffffffffffffffff16838590846040516108219190611d95565b600060405180830381858888f193505050503d806000811461085f576040519150601f19603f3d011682016040523d82523d6000602084013e610864565b606091505b50509050806108a8576040517f08c379a000000000000000000000000000000000000000000000000000000000815260040161089f90611df8565b60405180910390fd5b5050505050565b60006108c2826108bd610a26565b610ee2565b9050919050565b60006109a4600280546108db90611e47565b80601f016020809104026020016040519081016040528092919081815260200182805461090790611e47565b80156109545780601f1061092957610100808354040283529160200191610954565b820191906000526020600020905b81548152906001019060200180831161093757829003601f168201915b50505050508585858080601f016020809104026020016040519081016040528093929190818152602001838380828437600081840152601f19601f82011690508083019250505050505050610f69565b90509392505050565b60006109c0306109bb610a26565b610ee2565b905090565b60008054905090565b6109d6610c39565b15610a16576040517f08c379a0000000000000000000000000000000000000000000000000000000008152600401610a0d90611b9e565b60405180910390fd5b610a21838383611075565b505050565b60003073ffffffffffffffffffffffffffffffffffffffff16905090565b606060018054610a5390611e47565b80601f0160208091040260200160405190810160405280929190818152602001828054610a7f90611e47565b8015610acc5780601f10610aa157610100808354040283529160200191610acc565b820191906000526020600020905b815481529060010190602001808311610aaf57829003601f168201915b5050505050905090565b6000600360008473ffffffffffffffffffffffffffffffffffffffff1673ffffffffffffffffffffffffffffffffffffffff168152602001908152602001600020600083815260200190815260200160002054905092915050565b5050565b610b3d610c39565b15610b7d576040517f08c379a0000000000000000000000000000000000000000000000000000000008152600401610b7490611b9e565b60405180910390fd5b8060019081610b8c9190612024565b5050565b610b98610c39565b15610bd8576040517f08c379a0000000000000000000000000000000000000000000000000000000008152600401610bcf90611b9e565b60405180910390fd5b610c2e8989898960038a898b8a8a8080601f016020809104026020016040519081016040528093929190818152602001838380828437600081840152601f19601f82011690508083019250505050505050610e4a565b505050505050505050565b6000606060008060ff73ffffffffffffffffffffffffffffffffffffffff1683604051610c669190611d95565b600060405180830381855afa9150503d8060008114610ca1576040519150601f19603f3d011682016040523d82523d6000602084013e610ca6565b606091505b509150915081610ceb576040517f08c379a0000000000000000000000000000000000000000000000000000000008152600401610ce290612142565b60405180910390fd5b6000815111610d2f576040517f08c379a0000000000000000000000000000000000000000000000000000000008152600401610d26906121d4565b60405180910390fd5b80806020019051810190610d439190612209565b935050505090565b600060d073ffffffffffffffffffffffffffffffffffffffff1663f4c261b5836040518263ffffffff1660e01b8152600401610d87919061169c565b6020604051808303816000875af1158015610da6573d6000803e3d6000fd5b505050506040513d601f19601f82011682018060405250810190610dca9190612209565b905080610e0c576040517f08c379a0000000000000000000000000000000000000000000000000000000008152600401610e0390612282565b60405180910390fd5b81600080828254610e1d91906122a2565b925050819055505050565b6000815190506000808260208501600060fc88f1610e4557600080fd5b505050565b60fd73ffffffffffffffffffffffffffffffffffffffff1663f1d1cf1c8486888d8d8d8d8a8a6040518a63ffffffff1660e01b8152600401610e93989796959493929190612438565b60206040518083038185885af1158015610eb1573d6000803e3d6000fd5b50505050506040513d601f19601f82011682018060405250810190610ed69190612209565b50505050505050505050565b600060d173ffffffffffffffffffffffffffffffffffffffff16633a1735fc83856040518363ffffffff1660e01b8152600401610f209291906124c4565b602060405180830381865afa158015610f3d573d6000803e3d6000fd5b505050506040513d601f19601f82011682018060405250810190610f619190612502565b905092915050565b600080848484604051602001610f819392919061252f565b6040516020818303038152906040529050600080606060fe73ffffffffffffffffffffffffffffffffffffffff1684604051610fbd9190611d95565b600060405180830381855afa9150503d8060008114610ff8576040519150601f19603f3d011682016040523d82523d6000602084013e610ffd565b606091505b50809250819450505082611046576040517f08c379a000000000000000000000000000000000000000000000000000000000815260040161103d90612142565b60405180910390fd5b60008151111561106757808060200190518101906110649190612209565b91505b819450505050509392505050565b6000600167ffffffffffffffff81111561109257611091611230565b5b6040519080825280602002602001820160405280156110cb57816020015b6110b861112b565b8152602001906001900390816110b05790505b509050604051806040016040528084815260200183815250816000815181106110f7576110f6611bbe565b5b6020026020010181905250611125846000806000806000808860405180602001604052806000815250610e4a565b50505050565b604051806040016040528060008152602001600081525090565b6000604051905090565b600080fd5b600080fd5b6000819050919050565b61116c81611159565b811461117757600080fd5b50565b60008135905061118981611163565b92915050565b6000602082840312156111a5576111a461114f565b5b60006111b38482850161117a565b91505092915050565b600073ffffffffffffffffffffffffffffffffffffffff82169050919050565b60006111e7826111bc565b9050919050565b6111f7816111dc565b811461120257600080fd5b50565b600081359050611214816111ee565b92915050565b600080fd5b6000601f19601f8301169050919050565b7f4e487b7100000000000000000000000000000000000000000000000000000000600052604160045260246000fd5b6112688261121f565b810181811067ffffffffffffffff8211171561128757611286611230565b5b80604052505050565b600061129a611145565b90506112a6828261125f565b919050565b600067ffffffffffffffff8211156112c6576112c5611230565b5b602082029050602081019050919050565b600080fd5b600080fd5b6000604082840312156112f7576112f66112dc565b5b6113016040611290565b905060006113118482850161117a565b60008301525060206113258482850161117a565b60208301525092915050565b600061134461133f846112ab565b611290565b90508083825260208201905060408402830185811115611367576113666112d7565b5b835b81811015611390578061137c88826112e1565b845260208401935050604081019050611369565b5050509392505050565b600082601f8301126113af576113ae61121a565b5b81356113bf848260208601611331565b91505092915050565b600080604083850312156113df576113de61114f565b5b60006113ed85828601611205565b925050602083013567ffffffffffffffff81111561140e5761140d611154565b5b61141a8582860161139a565b9150509250929050565b600080fd5b60008083601f84011261143f5761143e61121a565b5b8235905067ffffffffffffffff81111561145c5761145b611424565b5b602083019150836001820283011115611478576114776112d7565b5b9250929050565b600080602083850312156114965761149561114f565b5b600083013567ffffffffffffffff8111156114b4576114b3611154565b5b6114c085828601611429565b92509250509250929050565b600080604083850312156114e3576114e261114f565b5b600083013567ffffffffffffffff81111561150157611500611154565b5b61150d8582860161139a565b925050602061151e85828601611205565b9150509250929050565b600080fd5b600067ffffffffffffffff82111561154857611547611230565b5b6115518261121f565b9050602081019050919050565b82818337600083830152505050565b600061158061157b8461152d565b611290565b90508281526020810184848401111561159c5761159b611528565b5b6115a784828561155e565b509392505050565b600082601f8301126115c4576115c361121a565b5b81356115d484826020860161156d565b91505092915050565b600080600080608085870312156115f7576115f661114f565b5b600061160587828801611205565b94505060206116168782880161117a565b93505060406116278782880161117a565b925050606085013567ffffffffffffffff81111561164857611647611154565b5b611654878288016115af565b91505092959194509250565b6000602082840312156116765761167561114f565b5b600061168484828501611205565b91505092915050565b61169681611159565b82525050565b60006020820190506116b1600083018461168d565b92915050565b6000806000604084860312156116d0576116cf61114f565b5b60006116de8682870161117a565b935050602084013567ffffffffffffffff8111156116ff576116fe611154565b5b61170b86828701611429565b92509250509250925092565b60008115159050919050565b61172c81611717565b82525050565b60006020820190506117476000830184611723565b92915050565b6000806000606084860312156117665761176561114f565b5b600061177486828701611205565b93505060206117858682870161117a565b92505060406117968682870161117a565b9150509250925092565b600081519050919050565b600082825260208201905092915050565b60005b838110156117da5780820151818401526020810190506117bf565b60008484015250505050565b60006117f1826117a0565b6117fb81856117ab565b935061180b8185602086016117bc565b6118148161121f565b840191505092915050565b6000602082019050818103600083015261183981846117e6565b905092915050565b600080604083850312156118585761185761114f565b5b600061186685828601611205565b92505060206118778582860161117a565b9150509250929050565b60008083601f8401126118975761189661121a565b5b8235905067ffffffffffffffff8111156118b4576118b3611424565b5b6020830191508360018202830111156118d0576118cf6112d7565b5b9250929050565b600080602083850312156118ee576118ed61114f565b5b600083013567ffffffffffffffff81111561190c5761190b611154565b5b61191885828601611881565b92509250509250929050565b600067ffffffffffffffff82111561193f5761193e611230565b5b6119488261121f565b9050602081019050919050565b600061196861196384611924565b611290565b90508281526020810184848401111561198457611983611528565b5b61198f84828561155e565b509392505050565b600082601f8301126119ac576119ab61121a565b5b81356119bc848260208601611955565b91505092915050565b6000602082840312156119db576119da61114f565b5b600082013567ffffffffffffffff8111156119f9576119f8611154565b5b611a0584828501611997565b91505092915050565b611a1781611717565b8114611a2257600080fd5b50565b600081359050611a3481611a0e565b92915050565b60008060008060008060008060006101008a8c031215611a5d57611a5c61114f565b5b6000611a6b8c828d01611205565b9950506020611a7c8c828d01611205565b9850506040611a8d8c828d01611205565b9750506060611a9e8c828d0161117a565b9650506080611aaf8c828d01611a25565b95505060a08a013567ffffffffffffffff811115611ad057611acf611154565b5b611adc8c828d0161139a565b94505060c0611aed8c828d0161117a565b93505060e08a013567ffffffffffffffff811115611b0e57611b0d611154565b5b611b1a8c828d01611429565b92509250509295985092959850929598565b7f547279696e6720746f2063616c6c2065787465726e616c2066756e6374696f6e60008201527f207769746820696e7465726e616c206d65737361676500000000000000000000602082015250565b6000611b886036836117ab565b9150611b9382611b2c565b604082019050919050565b60006020820190508181036000830152611bb781611b7b565b9050919050565b7f4e487b7100000000000000000000000000000000000000000000000000000000600052603260045260246000fd5b7f547279696e6720746f2063616c6c20696e7465726e616c2066756e6374696f6e60008201527f20776974682065787465726e616c206d65737361676500000000000000000000602082015250565b6000611c496036836117ab565b9150611c5482611bed565b604082019050919050565b60006020820190508181036000830152611c7881611c3c565b9050919050565b7f5472616e73666572206d6f7265207468616e20616c6c6f776564000000000000600082015250565b6000611cb5601a836117ab565b9150611cc082611c7f565b602082019050919050565b60006020820190508181036000830152611ce481611ca8565b9050919050565b7f4e487b7100000000000000000000000000000000000000000000000000000000600052601160045260246000fd5b6000611d2582611159565b9150611d3083611159565b9250828203905081811115611d4857611d47611ceb565b5b92915050565b600081519050919050565b600081905092915050565b6000611d6f82611d4e565b611d798185611d59565b9350611d898185602086016117bc565b80840191505092915050565b6000611da18284611d64565b915081905092915050565b7f43616c6c206661696c6564000000000000000000000000000000000000000000600082015250565b6000611de2600b836117ab565b9150611ded82611dac565b602082019050919050565b60006020820190508181036000830152611e1181611dd5565b9050919050565b7f4e487b7100000000000000000000000000000000000000000000000000000000600052602260045260246000fd5b60006002820490506001821680611e5f57607f821691505b602082108103611e7257611e71611e18565b5b50919050565b60008190508160005260206000209050919050565b60006020601f8301049050919050565b600082821b905092915050565b600060088302611eda7fffffffffffffffffffffffffffffffffffffffffffffffffffffffffffffffff82611e9d565b611ee48683611e9d565b95508019841693508086168417925050509392505050565b6000819050919050565b6000611f21611f1c611f1784611159565b611efc565b611159565b9050919050565b6000819050919050565b611f3b83611f06565b611f4f611f4782611f28565b848454611eaa565b825550505050565b600090565b611f64611f57565b611f6f818484611f32565b505050565b5b81811015611f9357611f88600082611f5c565b600181019050611f75565b5050565b601f821115611fd857611fa981611e78565b611fb284611e8d565b81016020851015611fc1578190505b611fd5611fcd85611e8d565b830182611f74565b50505b505050565b600082821c905092915050565b6000611ffb60001984600802611fdd565b1980831691505092915050565b60006120148383611fea565b9150826002028217905092915050565b61202d826117a0565b67ffffffffffffffff81111561204657612045611230565b5b6120508254611e47565b61205b828285611f97565b600060209050601f83116001811461208e576000841561207c578287015190505b6120868582612008565b8655506120ee565b601f19841661209c86611e78565b60005b828110156120c45784890151825560018201915060208501945060208101905061209f565b868310156120e157848901516120dd601f891682611fea565b8355505b6001600288020188555050505b505050505050565b7f507265636f6d70696c656420636f6e74726163742063616c6c206661696c6564600082015250565b600061212c6020836117ab565b9150612137826120f6565b602082019050919050565b6000602082019050818103600083015261215b8161211f565b9050919050565b7f2749535f494e5445524e414c5f4d455353414745272072657475726e7320696e60008201527f76616c6964206461746100000000000000000000000000000000000000000000602082015250565b60006121be602a836117ab565b91506121c982612162565b604082019050919050565b600060208201905081810360008301526121ed816121b1565b9050919050565b60008151905061220381611a0e565b92915050565b60006020828403121561221f5761221e61114f565b5b600061222d848285016121f4565b91505092915050565b7f4d696e74206661696c6564000000000000000000000000000000000000000000600082015250565b600061226c600b836117ab565b915061227782612236565b602082019050919050565b6000602082019050818103600083015261229b8161225f565b9050919050565b60006122ad82611159565b91506122b883611159565b92508282019050808211156122d0576122cf611ceb565b5b92915050565b600060ff82169050919050565b6122ec816122d6565b82525050565b6122fb816111dc565b82525050565b600081519050919050565b600082825260208201905092915050565b6000819050602082019050919050565b61233681611159565b82525050565b604082016000820151612352600085018261232d565b506020820151612365602085018261232d565b50505050565b6000612377838361233c565b60408301905092915050565b6000602082019050919050565b600061239b82612301565b6123a5818561230c565b93506123b08361231d565b8060005b838110156123e15781516123c8888261236b565b97506123d383612383565b9250506001810190506123b4565b5085935050505092915050565b600082825260208201905092915050565b600061240a82611d4e565b61241481856123ee565b93506124248185602086016117bc565b61242d8161121f565b840191505092915050565b60006101008201905061244e600083018b611723565b61245b602083018a6122e3565b61246860408301896122f2565b61247560608301886122f2565b61248260808301876122f2565b61248f60a083018661168d565b81810360c08301526124a18185612390565b905081810360e08301526124b581846123ff565b90509998505050505050505050565b60006040820190506124d9600083018561168d565b6124e660208301846122f2565b9392505050565b6000815190506124fc81611163565b92915050565b6000602082840312156125185761251761114f565b5b6000612526848285016124ed565b91505092915050565b6000606082019050818103600083015261254981866123ff565b9050612558602083018561168d565b818103604083015261256a81846123ff565b905094935050505056fea2646970667358221220a60a75a082c426d56d30ccef9cc41c8801d7f3263e6f1d982fccec085417b71f64736f6c63430008170033",
  "linkReferences": {},
  "deployedLinkReferences": {}
}