{
  "_format": "hh-sol-artifact-1",
  "contractName": "XWallet",
  "sourceName": "contracts/XWallet.sol",
  "abi": [
    {
      "inputs": [
        {
          "internalType": "bytes",
          "name": "_pubkey",
          "type": "bytes"
        }
      ],
      "stateMutability": "payable",
      "type": "constructor"
    },
    {
      "anonymous": false,
      "inputs": [
        {
          "indexed": true,
          "internalType": "address",
          "name": "spender",
          "type": "address"
        },
        {
          "indexed": true,
          "internalType": "uint256",
          "name": "tokenId",
          "type": "uint256"
        },
        {
          "indexed": false,
          "internalType": "uint256",
          "name": "amount",
          "type": "uint256"
        }
      ],
      "name": "Approval",
      "type": "event"
    },
    {
      "inputs": [
        {
          "internalType": "address",
          "name": "_spender",
          "type": "address"
        },
        {
          "internalType": "uint256",
          "name": "_token",
          "type": "uint256"
        }
      ],
      "name": "allowance",
      "outputs": [
        {
          "internalType": "uint256",
          "name": "",
          "type": "uint256"
        }
      ],
      "stateMutability": "view",
      "type": "function"
    },
    {
      "inputs": [
        {
          "internalType": "address",
          "name": "_spender",
          "type": "address"
        },
        {
          "components": [
            {
              "internalType": "uint256",
              "name": "id",
              "type": "uint256"
            },
            {
              "internalType": "uint256",
              "name": "amount",
              "type": "uint256"
            }
          ],
          "internalType": "struct Nil.Token[]",
          "name": "_tokens",
          "type": "tuple[]"
        }
      ],
      "name": "approve",
      "outputs": [],
      "stateMutability": "nonpayable",
      "type": "function"
    },
    {
      "inputs": [
        {
          "internalType": "address",
          "name": "dst",
          "type": "address"
        },
        {
          "internalType": "address",
          "name": "refundTo",
          "type": "address"
        },
        {
          "internalType": "address",
          "name": "bounceTo",
          "type": "address"
        },
        {
          "internalType": "uint256",
          "name": "feeCredit",
          "type": "uint256"
        },
        {
          "internalType": "bool",
          "name": "deploy",
          "type": "bool"
        },
        {
          "components": [
            {
              "internalType": "uint256",
              "name": "id",
              "type": "uint256"
            },
            {
              "internalType": "uint256",
              "name": "amount",
              "type": "uint256"
            }
          ],
          "internalType": "struct Nil.Token[]",
          "name": "tokens",
          "type": "tuple[]"
        },
        {
          "internalType": "uint256",
          "name": "value",
          "type": "uint256"
        },
        {
          "internalType": "bytes",
          "name": "callData",
          "type": "bytes"
        }
      ],
      "name": "asyncCall",
      "outputs": [],
      "stateMutability": "nonpayable",
      "type": "function"
    },
    {
      "inputs": [
        {
          "internalType": "string",
          "name": "err",
          "type": "string"
        }
      ],
      "name": "bounce",
      "outputs": [],
      "stateMutability": "payable",
      "type": "function"
    },
    {
      "inputs": [
        {
          "internalType": "uint256",
          "name": "amount",
          "type": "uint256"
        }
      ],
      "name": "burnCurrency",
      "outputs": [],
      "stateMutability": "nonpayable",
      "type": "function"
    },
    {
      "inputs": [
        {
          "internalType": "address",
          "name": "account",
          "type": "address"
        }
      ],
      "name": "getCurrencyBalanceOf",
      "outputs": [
        {
          "internalType": "uint256",
          "name": "",
          "type": "uint256"
        }
      ],
      "stateMutability": "view",
      "type": "function"
    },
    {
      "inputs": [],
      "name": "getCurrencyId",
      "outputs": [
        {
          "internalType": "uint256",
          "name": "",
          "type": "uint256"
        }
      ],
      "stateMutability": "view",
      "type": "function"
    },
    {
      "inputs": [],
      "name": "getCurrencyName",
      "outputs": [
        {
          "internalType": "string",
          "name": "",
          "type": "string"
        }
      ],
      "stateMutability": "view",
      "type": "function"
    },
    {
      "inputs": [],
      "name": "getCurrencyTotalSupply",
      "outputs": [
        {
          "internalType": "uint256",
          "name": "",
          "type": "uint256"
        }
      ],
      "stateMutability": "view",
      "type": "function"
    },
    {
      "inputs": [],
      "name": "getOwnCurrencyBalance",
      "outputs": [
        {
          "internalType": "uint256",
          "name": "",
          "type": "uint256"
        }
      ],
      "stateMutability": "view",
      "type": "function"
    },
    {
      "inputs": [
        {
          "internalType": "uint256",
          "name": "amount",
          "type": "uint256"
        }
      ],
      "name": "mintCurrency",
      "outputs": [],
      "stateMutability": "nonpayable",
      "type": "function"
    },
    {
      "inputs": [
        {
          "internalType": "bytes",
          "name": "message",
          "type": "bytes"
        }
      ],
      "name": "send",
      "outputs": [],
      "stateMutability": "nonpayable",
      "type": "function"
    },
    {
      "inputs": [
        {
          "internalType": "address",
          "name": "to",
          "type": "address"
        },
        {
          "internalType": "uint256",
          "name": "currencyId",
          "type": "uint256"
        },
        {
          "internalType": "uint256",
          "name": "amount",
          "type": "uint256"
        }
      ],
      "name": "sendCurrency",
      "outputs": [],
      "stateMutability": "nonpayable",
      "type": "function"
    },
    {
      "inputs": [
        {
          "internalType": "string",
          "name": "name",
          "type": "string"
        }
      ],
      "name": "setCurrencyName",
      "outputs": [],
      "stateMutability": "nonpayable",
      "type": "function"
    },
    {
      "inputs": [
        {
          "internalType": "address",
          "name": "dst",
          "type": "address"
        },
        {
          "internalType": "uint256",
          "name": "feeCredit",
          "type": "uint256"
        },
        {
          "internalType": "uint256",
          "name": "value",
          "type": "uint256"
        },
        {
          "internalType": "bytes",
          "name": "call_data",
          "type": "bytes"
        }
      ],
      "name": "syncCall",
      "outputs": [],
      "stateMutability": "nonpayable",
      "type": "function"
    },
    {
      "inputs": [
        {
          "components": [
            {
              "internalType": "uint256",
              "name": "id",
              "type": "uint256"
            },
            {
              "internalType": "uint256",
              "name": "amount",
              "type": "uint256"
            }
          ],
          "internalType": "struct Nil.Token[]",
          "name": "_tokens",
          "type": "tuple[]"
        },
        {
          "internalType": "address",
          "name": "_recepient",
          "type": "address"
        }
      ],
      "name": "transfer",
      "outputs": [],
      "stateMutability": "nonpayable",
      "type": "function"
    },
    {
      "inputs": [
        {
          "internalType": "uint256",
          "name": "hash",
          "type": "uint256"
        },
        {
          "internalType": "bytes",
          "name": "signature",
          "type": "bytes"
        }
      ],
      "name": "verifyExternal",
      "outputs": [
        {
          "internalType": "bool",
          "name": "",
          "type": "bool"
        }
      ],
      "stateMutability": "view",
      "type": "function"
    },
    {
      "stateMutability": "payable",
      "type": "receive"
    }
  ],
  "bytecode": "0x608060405260405162002dc538038062002dc58339818101604052810190620000299190620001d7565b8080600290816200003b919062000473565b5050506200055a565b6000604051905090565b600080fd5b600080fd5b600080fd5b600080fd5b6000601f19601f8301169050919050565b7f4e487b7100000000000000000000000000000000000000000000000000000000600052604160045260246000fd5b620000ad8262000062565b810181811067ffffffffffffffff82111715620000cf57620000ce62000073565b5b80604052505050565b6000620000e462000044565b9050620000f28282620000a2565b919050565b600067ffffffffffffffff82111562000115576200011462000073565b5b620001208262000062565b9050602081019050919050565b60005b838110156200014d57808201518184015260208101905062000130565b60008484015250505050565b6000620001706200016a84620000f7565b620000d8565b9050828152602081018484840111156200018f576200018e6200005d565b5b6200019c8482856200012d565b509392505050565b600082601f830112620001bc57620001bb62000058565b5b8151620001ce84826020860162000159565b91505092915050565b600060208284031215620001f057620001ef6200004e565b5b600082015167ffffffffffffffff81111562000211576200021062000053565b5b6200021f84828501620001a4565b91505092915050565b600081519050919050565b7f4e487b7100000000000000000000000000000000000000000000000000000000600052602260045260246000fd5b600060028204905060018216806200027b57607f821691505b60208210810362000291576200029062000233565b5b50919050565b60008190508160005260206000209050919050565b60006020601f8301049050919050565b600082821b905092915050565b600060088302620002fb7fffffffffffffffffffffffffffffffffffffffffffffffffffffffffffffffff82620002bc565b620003078683620002bc565b95508019841693508086168417925050509392505050565b6000819050919050565b6000819050919050565b6000620003546200034e62000348846200031f565b62000329565b6200031f565b9050919050565b6000819050919050565b620003708362000333565b620003886200037f826200035b565b848454620002c9565b825550505050565b600090565b6200039f62000390565b620003ac81848462000365565b505050565b5b81811015620003d457620003c860008262000395565b600181019050620003b2565b5050565b601f8211156200042357620003ed8162000297565b620003f884620002ac565b8101602085101562000408578190505b620004206200041785620002ac565b830182620003b1565b50505b505050565b600082821c905092915050565b6000620004486000198460080262000428565b1980831691505092915050565b600062000463838362000435565b9150826002028217905092915050565b6200047e8262000228565b67ffffffffffffffff8111156200049a576200049962000073565b5b620004a6825462000262565b620004b3828285620003d8565b600060209050601f831160018114620004eb5760008415620004d6578287015190505b620004e2858262000455565b86555062000552565b601f198416620004fb8662000297565b60005b828110156200052557848901518255600182019150602085019450602081019050620004fe565b8683101562000545578489015162000541601f89168262000435565b8355505b6001600288020188555050505b505050505050565b61285b806200056a6000396000f3fe6080604052600436106101025760003560e01c8063add29c6d11610095578063ddc6a17111610064578063ddc6a1711461032a578063e2f5df8c14610367578063eae02e6814610383578063eed20631146103ac578063f5b8214a146103d557610109565b8063add29c6d14610280578063b534638e146102ab578063cf387fed146102d4578063d064d784146102ff57610109565b80634f7d1d58116100d15780634f7d1d58146101b25780635e38b66c146101db578063796d7f5614610218578063978563081461025557610109565b80631072b91f1461010e5780631b20c58b146101375780632bb1ae7c1461016057806334bd4fa41461018957610109565b3661010957005b600080fd5b34801561011a57600080fd5b506101356004803603810190610130919061133f565b6103fe565b005b34801561014357600080fd5b5061015e60048036038101906101599190611578565b610452565b005b34801561016c57600080fd5b506101876004803603810190610182919061162f565b610592565b005b34801561019557600080fd5b506101b060048036038101906101ab919061167c565b61062c565b005b3480156101be57600080fd5b506101d960048036038101906101d4919061178d565b6107e3565b005b3480156101e757600080fd5b5061020260048036038101906101fd9190611810565b6108e3565b60405161020f919061184c565b60405180910390f35b34801561022457600080fd5b5061023f600480360381019061023a9190611867565b6108fd565b60405161024c91906118e2565b60405180910390f35b34801561026157600080fd5b5061026a6109e1565b604051610277919061184c565b60405180910390f35b34801561028c57600080fd5b506102956109f9565b6040516102a2919061184c565b60405180910390f35b3480156102b757600080fd5b506102d260048036038101906102cd91906118fd565b610a02565b005b3480156102e057600080fd5b506102e9610a5a565b6040516102f6919061184c565b60405180910390f35b34801561030b57600080fd5b50610314610a78565b60405161032191906119cf565b60405180910390f35b34801561033657600080fd5b50610351600480360381019061034c91906119f1565b610b0a565b60405161035e919061184c565b60405180910390f35b610381600480360381019061037c9190611a87565b610b65565b005b34801561038f57600080fd5b506103aa60048036038101906103a5919061133f565b610b69565b005b3480156103b857600080fd5b506103d360048036038101906103ce9190611b75565b610bbd565b005b3480156103e157600080fd5b506103fc60048036038101906103f79190611bea565b610c18565b005b610406610cc1565b15610446576040517f08c379a000000000000000000000000000000000000000000000000000000000815260040161043d90611d4e565b60405180910390fd5b61044f81610dd3565b50565b61045a610cc1565b1561049a576040517f08c379a000000000000000000000000000000000000000000000000000000000815260040161049190611d4e565b60405180910390fd5b60008151905060005b8181101561058c5760008382815181106104c0576104bf611d6e565b5b602002602001015190508060200151600360008773ffffffffffffffffffffffffffffffffffffffff1673ffffffffffffffffffffffffffffffffffffffff1681526020019081526020016000206000836000015181526020019081526020016000208190555080600001518573ffffffffffffffffffffffffffffffffffffffff167f56d287bf2bec97161aebc6ad3c1390661e6b8dcb8da1882b73e75e9a65a99a188360200151604051610576919061184c565b60405180910390a35080806001019150506104a3565b50505050565b61059a610cc1565b156105da576040517f08c379a00000000000000000000000000000000000000000000000000000000081526004016105d190611d4e565b60405180910390fd5b6106285a83838080601f016020809104026020016040519081016040528093929190818152602001838380828437600081840152601f19601f82011690508083019250505050505050610eb3565b5050565b610634610cc1565b610673576040517f08c379a000000000000000000000000000000000000000000000000000000000815260040161066a90611e0f565b60405180910390fd5b60008251905060005b818110156107bb57600084828151811061069957610698611d6e565b5b602002602001015190508060200151600360003373ffffffffffffffffffffffffffffffffffffffff1673ffffffffffffffffffffffffffffffffffffffff16815260200190815260200160002060008360000151815260200190815260200160002054101561073e576040517f08c379a000000000000000000000000000000000000000000000000000000000815260040161073590611e7b565b60405180910390fd5b8060200151600360003373ffffffffffffffffffffffffffffffffffffffff1673ffffffffffffffffffffffffffffffffffffffff16815260200190815260200160002060008360000151815260200190815260200160002060008282546107a69190611eca565b9250508190555050808060010191505061067c565b506107de8230305a60036000808a60405180602001604052806000815250610ed5565b505050565b6107eb610cc1565b1561082b576040517f08c379a000000000000000000000000000000000000000000000000000000000815260040161082290611d4e565b60405180910390fd5b60008473ffffffffffffffffffffffffffffffffffffffff16838590846040516108559190611f45565b600060405180830381858888f193505050503d8060008114610893576040519150601f19603f3d011682016040523d82523d6000602084013e610898565b606091505b50509050806108dc576040517f08c379a00000000000000000000000000000000000000000000000000000000081526004016108d390611fa8565b60405180910390fd5b5050505050565b60006108f6826108f1610a5a565b610f6d565b9050919050565b60006109d86002805461090f90611ff7565b80601f016020809104026020016040519081016040528092919081815260200182805461093b90611ff7565b80156109885780601f1061095d57610100808354040283529160200191610988565b820191906000526020600020905b81548152906001019060200180831161096b57829003601f168201915b50505050508585858080601f016020809104026020016040519081016040528093929190818152602001838380828437600081840152601f19601f82011690508083019250505050505050610ff4565b90509392505050565b60006109f4306109ef610a5a565b610f6d565b905090565b60008054905090565b610a0a610cc1565b15610a4a576040517f08c379a0000000000000000000000000000000000000000000000000000000008152600401610a4190611d4e565b60405180910390fd5b610a55838383611100565b505050565b60003073ffffffffffffffffffffffffffffffffffffffff16905090565b606060018054610a8790611ff7565b80601f0160208091040260200160405190810160405280929190818152602001828054610ab390611ff7565b8015610b005780601f10610ad557610100808354040283529160200191610b00565b820191906000526020600020905b815481529060010190602001808311610ae357829003601f168201915b5050505050905090565b6000600360008473ffffffffffffffffffffffffffffffffffffffff1673ffffffffffffffffffffffffffffffffffffffff168152602001908152602001600020600083815260200190815260200160002054905092915050565b5050565b610b71610cc1565b15610bb1576040517f08c379a0000000000000000000000000000000000000000000000000000000008152600401610ba890611d4e565b60405180910390fd5b610bba816111b6565b50565b610bc5610cc1565b15610c05576040517f08c379a0000000000000000000000000000000000000000000000000000000008152600401610bfc90611d4e565b60405180910390fd5b8060019081610c1491906121d4565b5050565b610c20610cc1565b15610c60576040517f08c379a0000000000000000000000000000000000000000000000000000000008152600401610c5790611d4e565b60405180910390fd5b610cb68989898960038a898b8a8a8080601f016020809104026020016040519081016040528093929190818152602001838380828437600081840152601f19601f82011690508083019250505050505050610ed5565b505050505050505050565b6000606060008060ff73ffffffffffffffffffffffffffffffffffffffff1683604051610cee9190611f45565b600060405180830381855afa9150503d8060008114610d29576040519150601f19603f3d011682016040523d82523d6000602084013e610d2e565b606091505b509150915081610d73576040517f08c379a0000000000000000000000000000000000000000000000000000000008152600401610d6a906122f2565b60405180910390fd5b6000815111610db7576040517f08c379a0000000000000000000000000000000000000000000000000000000008152600401610dae90612384565b60405180910390fd5b80806020019051810190610dcb91906123b9565b935050505090565b600060d073ffffffffffffffffffffffffffffffffffffffff1663505c91718360016040518363ffffffff1660e01b8152600401610e129291906123e6565b6020604051808303816000875af1158015610e31573d6000803e3d6000fd5b505050506040513d601f19601f82011682018060405250810190610e5591906123b9565b905080610e97576040517f08c379a0000000000000000000000000000000000000000000000000000000008152600401610e8e9061245b565b60405180910390fd5b81600080828254610ea8919061247b565b925050819055505050565b6000815190506000808260208501600060fc88f1610ed057600080fd5b505050565b60fd73ffffffffffffffffffffffffffffffffffffffff1663f1d1cf1c8486888d8d8d8d8a8a6040518a63ffffffff1660e01b8152600401610f1e989796959493929190612611565b60206040518083038185885af1158015610f3c573d6000803e3d6000fd5b50505050506040513d601f19601f82011682018060405250810190610f6191906123b9565b50505050505050505050565b600060d173ffffffffffffffffffffffffffffffffffffffff16633a1735fc83856040518363ffffffff1660e01b8152600401610fab92919061269d565b602060405180830381865afa158015610fc8573d6000803e3d6000fd5b505050506040513d601f19601f82011682018060405250810190610fec91906126db565b905092915050565b60008084848460405160200161100c93929190612708565b6040516020818303038152906040529050600080606060fe73ffffffffffffffffffffffffffffffffffffffff16846040516110489190611f45565b600060405180830381855afa9150503d8060008114611083576040519150601f19603f3d011682016040523d82523d6000602084013e611088565b606091505b508092508194505050826110d1576040517f08c379a00000000000000000000000000000000000000000000000000000000081526004016110c8906122f2565b60405180910390fd5b6000815111156110f257808060200190518101906110ef91906123b9565b91505b819450505050509392505050565b6000600167ffffffffffffffff81111561111d5761111c6113e0565b5b60405190808252806020026020018201604052801561115657816020015b6111436112db565b81526020019060019003908161113b5790505b5090506040518060400160405280848152602001838152508160008151811061118257611181611d6e565b5b60200260200101819052506111b0846000806000806000808860405180602001604052806000815250610ed5565b50505050565b8060005410156111fb576040517f08c379a00000000000000000000000000000000000000000000000000000000081526004016111f290612799565b60405180910390fd5b600060d073ffffffffffffffffffffffffffffffffffffffff1663505c91718360006040518363ffffffff1660e01b815260040161123a9291906123e6565b6020604051808303816000875af1158015611259573d6000803e3d6000fd5b505050506040513d601f19601f8201168201806040525081019061127d91906123b9565b9050806112bf576040517f08c379a00000000000000000000000000000000000000000000000000000000081526004016112b690612805565b60405180910390fd5b816000808282546112d09190611eca565b925050819055505050565b604051806040016040528060008152602001600081525090565b6000604051905090565b600080fd5b600080fd5b6000819050919050565b61131c81611309565b811461132757600080fd5b50565b60008135905061133981611313565b92915050565b600060208284031215611355576113546112ff565b5b60006113638482850161132a565b91505092915050565b600073ffffffffffffffffffffffffffffffffffffffff82169050919050565b60006113978261136c565b9050919050565b6113a78161138c565b81146113b257600080fd5b50565b6000813590506113c48161139e565b92915050565b600080fd5b6000601f19601f8301169050919050565b7f4e487b7100000000000000000000000000000000000000000000000000000000600052604160045260246000fd5b611418826113cf565b810181811067ffffffffffffffff82111715611437576114366113e0565b5b80604052505050565b600061144a6112f5565b9050611456828261140f565b919050565b600067ffffffffffffffff821115611476576114756113e0565b5b602082029050602081019050919050565b600080fd5b600080fd5b6000604082840312156114a7576114a661148c565b5b6114b16040611440565b905060006114c18482850161132a565b60008301525060206114d58482850161132a565b60208301525092915050565b60006114f46114ef8461145b565b611440565b9050808382526020820190506040840283018581111561151757611516611487565b5b835b81811015611540578061152c8882611491565b845260208401935050604081019050611519565b5050509392505050565b600082601f83011261155f5761155e6113ca565b5b813561156f8482602086016114e1565b91505092915050565b6000806040838503121561158f5761158e6112ff565b5b600061159d858286016113b5565b925050602083013567ffffffffffffffff8111156115be576115bd611304565b5b6115ca8582860161154a565b9150509250929050565b600080fd5b60008083601f8401126115ef576115ee6113ca565b5b8235905067ffffffffffffffff81111561160c5761160b6115d4565b5b60208301915083600182028301111561162857611627611487565b5b9250929050565b60008060208385031215611646576116456112ff565b5b600083013567ffffffffffffffff81111561166457611663611304565b5b611670858286016115d9565b92509250509250929050565b60008060408385031215611693576116926112ff565b5b600083013567ffffffffffffffff8111156116b1576116b0611304565b5b6116bd8582860161154a565b92505060206116ce858286016113b5565b9150509250929050565b600080fd5b600067ffffffffffffffff8211156116f8576116f76113e0565b5b611701826113cf565b9050602081019050919050565b82818337600083830152505050565b600061173061172b846116dd565b611440565b90508281526020810184848401111561174c5761174b6116d8565b5b61175784828561170e565b509392505050565b600082601f830112611774576117736113ca565b5b813561178484826020860161171d565b91505092915050565b600080600080608085870312156117a7576117a66112ff565b5b60006117b5878288016113b5565b94505060206117c68782880161132a565b93505060406117d78782880161132a565b925050606085013567ffffffffffffffff8111156117f8576117f7611304565b5b6118048782880161175f565b91505092959194509250565b600060208284031215611826576118256112ff565b5b6000611834848285016113b5565b91505092915050565b61184681611309565b82525050565b6000602082019050611861600083018461183d565b92915050565b6000806000604084860312156118805761187f6112ff565b5b600061188e8682870161132a565b935050602084013567ffffffffffffffff8111156118af576118ae611304565b5b6118bb868287016115d9565b92509250509250925092565b60008115159050919050565b6118dc816118c7565b82525050565b60006020820190506118f760008301846118d3565b92915050565b600080600060608486031215611916576119156112ff565b5b6000611924868287016113b5565b93505060206119358682870161132a565b92505060406119468682870161132a565b9150509250925092565b600081519050919050565b600082825260208201905092915050565b60005b8381101561198a57808201518184015260208101905061196f565b60008484015250505050565b60006119a182611950565b6119ab818561195b565b93506119bb81856020860161196c565b6119c4816113cf565b840191505092915050565b600060208201905081810360008301526119e98184611996565b905092915050565b60008060408385031215611a0857611a076112ff565b5b6000611a16858286016113b5565b9250506020611a278582860161132a565b9150509250929050565b60008083601f840112611a4757611a466113ca565b5b8235905067ffffffffffffffff811115611a6457611a636115d4565b5b602083019150836001820283011115611a8057611a7f611487565b5b9250929050565b60008060208385031215611a9e57611a9d6112ff565b5b600083013567ffffffffffffffff811115611abc57611abb611304565b5b611ac885828601611a31565b92509250509250929050565b600067ffffffffffffffff821115611aef57611aee6113e0565b5b611af8826113cf565b9050602081019050919050565b6000611b18611b1384611ad4565b611440565b905082815260208101848484011115611b3457611b336116d8565b5b611b3f84828561170e565b509392505050565b600082601f830112611b5c57611b5b6113ca565b5b8135611b6c848260208601611b05565b91505092915050565b600060208284031215611b8b57611b8a6112ff565b5b600082013567ffffffffffffffff811115611ba957611ba8611304565b5b611bb584828501611b47565b91505092915050565b611bc7816118c7565b8114611bd257600080fd5b50565b600081359050611be481611bbe565b92915050565b60008060008060008060008060006101008a8c031215611c0d57611c0c6112ff565b5b6000611c1b8c828d016113b5565b9950506020611c2c8c828d016113b5565b9850506040611c3d8c828d016113b5565b9750506060611c4e8c828d0161132a565b9650506080611c5f8c828d01611bd5565b95505060a08a013567ffffffffffffffff811115611c8057611c7f611304565b5b611c8c8c828d0161154a565b94505060c0611c9d8c828d0161132a565b93505060e08a013567ffffffffffffffff811115611cbe57611cbd611304565b5b611cca8c828d016115d9565b92509250509295985092959850929598565b7f547279696e6720746f2063616c6c2065787465726e616c2066756e6374696f6e60008201527f207769746820696e7465726e616c206d65737361676500000000000000000000602082015250565b6000611d3860368361195b565b9150611d4382611cdc565b604082019050919050565b60006020820190508181036000830152611d6781611d2b565b9050919050565b7f4e487b7100000000000000000000000000000000000000000000000000000000600052603260045260246000fd5b7f547279696e6720746f2063616c6c20696e7465726e616c2066756e6374696f6e60008201527f20776974682065787465726e616c206d65737361676500000000000000000000602082015250565b6000611df960368361195b565b9150611e0482611d9d565b604082019050919050565b60006020820190508181036000830152611e2881611dec565b9050919050565b7f5472616e73666572206d6f7265207468616e20616c6c6f776564000000000000600082015250565b6000611e65601a8361195b565b9150611e7082611e2f565b602082019050919050565b60006020820190508181036000830152611e9481611e58565b9050919050565b7f4e487b7100000000000000000000000000000000000000000000000000000000600052601160045260246000fd5b6000611ed582611309565b9150611ee083611309565b9250828203905081811115611ef857611ef7611e9b565b5b92915050565b600081519050919050565b600081905092915050565b6000611f1f82611efe565b611f298185611f09565b9350611f3981856020860161196c565b80840191505092915050565b6000611f518284611f14565b915081905092915050565b7f43616c6c206661696c6564000000000000000000000000000000000000000000600082015250565b6000611f92600b8361195b565b9150611f9d82611f5c565b602082019050919050565b60006020820190508181036000830152611fc181611f85565b9050919050565b7f4e487b7100000000000000000000000000000000000000000000000000000000600052602260045260246000fd5b6000600282049050600182168061200f57607f821691505b60208210810361202257612021611fc8565b5b50919050565b60008190508160005260206000209050919050565b60006020601f8301049050919050565b600082821b905092915050565b60006008830261208a7fffffffffffffffffffffffffffffffffffffffffffffffffffffffffffffffff8261204d565b612094868361204d565b95508019841693508086168417925050509392505050565b6000819050919050565b60006120d16120cc6120c784611309565b6120ac565b611309565b9050919050565b6000819050919050565b6120eb836120b6565b6120ff6120f7826120d8565b84845461205a565b825550505050565b600090565b612114612107565b61211f8184846120e2565b505050565b5b818110156121435761213860008261210c565b600181019050612125565b5050565b601f8211156121885761215981612028565b6121628461203d565b81016020851015612171578190505b61218561217d8561203d565b830182612124565b50505b505050565b600082821c905092915050565b60006121ab6000198460080261218d565b1980831691505092915050565b60006121c4838361219a565b9150826002028217905092915050565b6121dd82611950565b67ffffffffffffffff8111156121f6576121f56113e0565b5b6122008254611ff7565b61220b828285612147565b600060209050601f83116001811461223e576000841561222c578287015190505b61223685826121b8565b86555061229e565b601f19841661224c86612028565b60005b828110156122745784890151825560018201915060208501945060208101905061224f565b86831015612291578489015161228d601f89168261219a565b8355505b6001600288020188555050505b505050505050565b7f507265636f6d70696c656420636f6e74726163742063616c6c206661696c6564600082015250565b60006122dc60208361195b565b91506122e7826122a6565b602082019050919050565b6000602082019050818103600083015261230b816122cf565b9050919050565b7f2749535f494e5445524e414c5f4d455353414745272072657475726e7320696e60008201527f76616c6964206461746100000000000000000000000000000000000000000000602082015250565b600061236e602a8361195b565b915061237982612312565b604082019050919050565b6000602082019050818103600083015261239d81612361565b9050919050565b6000815190506123b381611bbe565b92915050565b6000602082840312156123cf576123ce6112ff565b5b60006123dd848285016123a4565b91505092915050565b60006040820190506123fb600083018561183d565b61240860208301846118d3565b9392505050565b7f4d696e74206661696c6564000000000000000000000000000000000000000000600082015250565b6000612445600b8361195b565b91506124508261240f565b602082019050919050565b6000602082019050818103600083015261247481612438565b9050919050565b600061248682611309565b915061249183611309565b92508282019050808211156124a9576124a8611e9b565b5b92915050565b600060ff82169050919050565b6124c5816124af565b82525050565b6124d48161138c565b82525050565b600081519050919050565b600082825260208201905092915050565b6000819050602082019050919050565b61250f81611309565b82525050565b60408201600082015161252b6000850182612506565b50602082015161253e6020850182612506565b50505050565b60006125508383612515565b60408301905092915050565b6000602082019050919050565b6000612574826124da565b61257e81856124e5565b9350612589836124f6565b8060005b838110156125ba5781516125a18882612544565b97506125ac8361255c565b92505060018101905061258d565b5085935050505092915050565b600082825260208201905092915050565b60006125e382611efe565b6125ed81856125c7565b93506125fd81856020860161196c565b612606816113cf565b840191505092915050565b600061010082019050612627600083018b6118d3565b612634602083018a6124bc565b61264160408301896124cb565b61264e60608301886124cb565b61265b60808301876124cb565b61266860a083018661183d565b81810360c083015261267a8185612569565b905081810360e083015261268e81846125d8565b90509998505050505050505050565b60006040820190506126b2600083018561183d565b6126bf60208301846124cb565b9392505050565b6000815190506126d581611313565b92915050565b6000602082840312156126f1576126f06112ff565b5b60006126ff848285016126c6565b91505092915050565b6000606082019050818103600083015261272281866125d8565b9050612731602083018561183d565b818103604083015261274381846125d8565b9050949350505050565b7f4275726e206661696c65643a206e6f7420656e6f75676820746f6b656e730000600082015250565b6000612783601e8361195b565b915061278e8261274d565b602082019050919050565b600060208201905081810360008301526127b281612776565b9050919050565b7f4275726e206661696c6564000000000000000000000000000000000000000000600082015250565b60006127ef600b8361195b565b91506127fa826127b9565b602082019050919050565b6000602082019050818103600083015261281e816127e2565b905091905056fea26469706673582212205c7b1d5b0d27bb7a88d8f7a3549b023d1b6b5a7ac433b53ff4f783661e8df6eb64736f6c63430008170033",
  "linkReferences": {},
  "deployedLinkReferences": {}
}